:020000040800F2
:1000000000040020B9010008BB010008BB01000882
:10001000BB010008BB010008BB010008BB010008D0
:10002000BB010008BB010008BB010008ADCD000802
:10003000BB010008BB010008BB010008FDDF000890
:10004000BB010008BB010008BB010008BB010008A0
:10005000BB010008BB01000885340008C534000856
:1000600005350008493500088D350008BB0100083A
:10007000BB010008BB010008CDE60008BB01000879
:10008000D1350008BB010008BB010008BB01000816
:10009000BB010008BB010008BB010008BB01000850
:1000A000BB010008BB010008B9E20008CDE200086E
:1000B000BB010008BB010008BB010008BB01000830
:1000C0001DE0000871360008BB0100082537000854
:1000D000BB010008BB010008BB010008BB01000810
:1000E00072B6264880F30888254880F30988254899
:1000F00025490860022080F31488BFF36F8F0CF04D
:1001000081FB0CF05BF94FF0553020491B4A9142BE
:100110003CBF41F8040BFAE71D49194A91423CBF24
:1001200041F8040BFAE71B491B4A1C4B9A423EBF9D
:1001300051F8040B42F8040BF8E700201849194A5B
:1001400091423CBF41F8040BFAE70CF05FFB0CF066
:100150005AFB154C154DAC4203DA54F8041B884782
:10016000F9E706F09DFF124C124DAC4203DA54F849
:10017000041B8847F9E70CF047BB0000000400208F
:10018000000C00200000000808ED00E00000002046
:100190000004002098070108000C0020B00F002088
:1001A000B00F002004380020E0000008E000000844
:1001B000E0000008E000000892E700F000F8FEE729
:1001C0002DE9F04FC1F80CD0C3689D46BDE8F08F13
:1001D000002383F311882846A04700200CF01AFD65
:1001E000FEE70CF04DFC00DFFEE7000053B94AB912
:1001F000002908BF00281CBF4FF0FF314FF0FF302F
:1002000000F074B9ADF1080C6DE904CE00F006F809
:10021000DDF804E0DDE9022304B070472DE9F04782
:100220008C460446089E002B40F086808A42154684
:1002300048D9B2FA82F24AB1C2F1200701FA02F3B8
:1002400020FA07F7954047EA030C94404FEA154E11
:10025000BCFBFEF71FFA85F80EFB17C307FB08F976
:10026000210C41EA0343994509D9EB1807F1FF3105
:1002700080F0E180994540F2DE80023F2B44A3EB01
:100280000903B3FBFEF00EFB103300FB08F1A4B230
:1002900044EA0344A14209D92C1900F1FF3380F04C
:1002A000C880A14240F2C58002382C4440EA074091
:1002B0000027641A1EB10023D440C6E90043394622
:1002C000BDE8F087002A54D0B2FA82F2002A40F04A
:1002D000B4800127491B4FEA15481FFA85F9B1FB85
:1002E000F8FE08FB1E1109FB0EF04FEA144C4CEA15
:1002F0000143984207D9EB180EF1FF3102D2984220
:1003000000F2EB808E461B1AB3FBF8F008FB1033AB
:1003100009FB00F9A4B244EA0344A14507D92C190A
:1003200000F1FF3302D2A14500F2DB801846A4EBB6
:10033000090440EA0E40BDE78B4208D9002E75D073
:100340000027C6E9000138463946BDE8F087B3FA10
:1003500083F77FB98B4202D3824200F2BC80841AB9
:1003600061EB030301209C46002EA8D0C6E9004C97
:10037000A5E7FFDEC7F12005BB4022FA05FC4CEAE9
:10038000030C21FA05F44FEA1C4EB4FBFEF91FFAE8
:100390008CF80EFB194420FA05F3B94009FB08FA62
:1003A00019430B0C43EA0444A24502FA07F200FA8F
:1003B00007F30BD91CEB040409F1FF3080F08980AE
:1003C000A24540F28680A9F102096444A4EB0A0424
:1003D000B4FBFEF00EFB104400FB08FA89B241EAC0
:1003E0000444A24508D91CEB040400F1FF316CD28F
:1003F000A2456AD90238644440EA0940A0FB028958
:10040000A4EB0A044C454146CE4655D352D0002EAB
:100410006AD05A1A64EB0E0404FA05F522FA07F3BF
:10042000FC401D43C6E90054002748E737463046E4
:1004300045E718463AE70F4621E79540C2F1200309
:1004400021FA03F04FEA1548B0FBF8F71FFA85F9D7
:1004500008FB170E24FA03FC914007FB09FA4CEA4B
:100460000101080C40EA0E40824504FA02F407D963
:10047000281807F1FF332AD2824528D9023F2844A1
:10048000A0EB0A00B0FBF8FC08FB1C000CFB09F316
:1004900089B241EA00418B4208D969180CF1FF305A
:1004A00011D28B420FD9ACF1020C2944C91A4CEA83
:1004B000074714E74345AAD2B8EB020169EB0C02E7
:1004C00001389646A3E78446F0E7084694E71F46BE
:1004D000D6E781467AE7384646E7AEF1020E2B446E
:1004E00011E702382C4422E73746E8E6704700BFA0
:1004F00008B5062000F0C2FA01200DF0C7FB00BFCE
:10050000024B0146186800F055B900BF000C0020EE
:10051000024B0146186800F0F9B800BF000C00203B
:10052000032A70B412D940EA0105AD0704460B4610
:1005300020D11946204653F8045B54F8046BAE42B0
:1005400018D1043A032A20461946F2D8541E72B133
:1005500003780A789A4208BF241806D00CE010F8F5
:10056000013F11F8012F934206D1A042F7D100209C
:1005700070BC7047541EEBE7981A70BC704700BF00
:10058000844641EA000313F0030349D1403A23D3E0
:100590000B6803604B6843608B688360CB68C36003
:1005A0000B6903614B6943618B698361CB69C361EB
:1005B0000B6A03624B6A43628B6A8362CB6AC362D3
:1005C0000B6B03634B6B43638B6B8363CB6BC363BB
:1005D00040304031403ADBD230320BD30B680360FD
:1005E0004B6843608B688360CB68C3601030103108
:1005F000103AF3D20C3205D351F8043B40F8043BD7
:10060000043AF9D2043208D0D2071CBF11F8013BDA
:1006100000F8013B01D30B8803806046704700BFA0
:10062000082A13D38B07B1D010F00303AED0C3F167
:100630000403D21ADB071CBF11F8013B00F8013B91
:10064000A4D331F8023B20F8023B9FE7043AD9D308
:10065000013A11F8013B00F8013BF9D20B78037025
:100660004B7843708B78837060467047F0B4860790
:1006700046D0541E002A3CD0CAB2034602E014F110
:10068000FF3436D303F8012B9D07F8D1032C29D969
:10069000CDB245EA05250F2C45EA054533D9A4F12D
:1006A0001006360903F1200707EB061703F11002C5
:1006B00042E9045542E902551032BA42F8D1721C9F
:1006C00014F00C0F03EB021204F00F0613D0331FCB
:1006D00023F003030433134442F8045B9342FBD139
:1006E00006F003042CB1C9B21C4403F8011B9C4260
:1006F000FBD1F0BC704734461346002CF3D1F8E729
:1007000014460346C2E71A462646E0E700293AD0D7
:1007100038B551F8043C0C1F002BB8BFE41805464F
:1007200000F05AFA224B1A682AB1A2420DD9216868
:100730006018824221D0626028461C60BDE83840C3
:1007400000F04CBAA34203D81A465368002BF9D1E3
:1007500011685018A04217D022D82168601883422F
:1007600003BFD3E900030918C4E9001363605460B0
:100770002846BDE8384000F031BAD2E90002014411
:10078000C4E90012D8E7704720680144501883423A
:100790001160EDD1D3E900030144C2E90013E7E79A
:1007A0000C2328462B60BDE8384000F017BA00BF84
:1007B000B00F0020F8B5CD1C25F0030508350C2D31
:1007C00038BF0C25002D064633DBA94231D82A4F0D
:1007D00000F002FA3A6852B113685B1B04D43FE0A0
:1007E00023685B1B29D522465468002CF8D1796810
:1007F00000293BD0294630460DF02CFA431C28D066
:10080000C41C24F00304A04205D0211A30460DF088
:1008100021FA01301DD02560304600F0DFF904F1E7
:100820000B0020F00700231DC21A01D01B1AA35091
:10083000F8BD0C2200203260F8BD0B2B05D8A24277
:10084000636811D05360E7E7144623601C442560B9
:10085000E2E70C233046336000F0C0F90020F8BD19
:100860000B2BF1D8144653683B60D5E730460DF0AA
:10087000F1F97860BEE700BFB00F002038B5124B29
:1008800005461C68A06B18B10023C0E9045338BDAD
:100890001820FFF735FEA06378B101220023C0E9DC
:1008A00004230A4B0B24836000230949094A8481ED
:1008B000C0E90012C0E9045338BD0246064B42218C
:1008C000064800F041F900BF000C0020ECDE0500F6
:1008D0000E33CDAB34126DE6C8060108E006010800
:1008E00038B51A4B1C68A26B92B114691849536948
:1008F00001FB04F1174800FB0313A4FB0045611C36
:100900001D4445F1000323F00040C2E9041338BD43
:100910001820FFF7F5FD0246A06388B101240025E9
:100920000B21C0E904450C4B0948136003460B4DED
:100930000B4C91810B49C2E90154C2E9041338BD43
:10094000094B4E21094800F0FFF800BF000C0020C1
:100950002DF451582D7F954C0E33CDAB34126DE6EE
:10096000ECDE05002E7F954CC8060108E006010864
:1009700010B580210446FFF71DFF606440B10022DE
:10098000031F7C3043F8042F8342FBD1002010BDAD
:100990004FF0FF3010BD00BF436C0BB1002070471B
:1009A000E6E700BF1F2970B5054608D8436C164618
:1009B0000C464BB153F8240043F8246070BD162256
:1009C0004FF0FF302A6070BDFFF7D2FF08B96B6CA3
:1009D000F0E74FF0FF3070BD1F2938B5054620D82D
:1009E000426C0C466AB152F8213053B1012B16D03B
:1009F000591C10D00025204642F82450984728461C
:100A000038BD284600F070F8224601462846BDE869
:100A1000384000F055B8162301202B6038BD002067
:100A200038BD16234FF0FF302B6038BD1F2921D869
:100A300038B5436C05460C4683B153F8242003EBCC
:100A400084034AB1511C10D0012A0CD00025204645
:100A50001D609047284638BD012038BDFFF788FF4C
:100A600028B96B6CE9E7032038BD022038BD4FF090
:100A7000FF3038BD4FF0FF30704700BF024B0146DA
:100A80001868FFF7A9BF00BF000C0020024B0A4600
:100A900001461868FFF786BF000C0020034B18685A
:100AA000436C0BB10020704762E700BF000C0020D0
:100AB000024B01461868FFF7B9BF00BF000C0020C9
:100AC00070B50D460023074C0646114628462360A4
:100AD0000DF0E4F8431C00D070BD2368002BFBD060
:100AE000336070BD003800200DF0E0B820F0030145
:100AF00010F00300C0F1000051F8043B00F1040CB9
:100B00004FEACC0C6FF000021CBF22FA0CF2134328
:100B10004FF0010C4CEA0C2C4CEA0C4CA3EB0C02F1
:100B200022EA030212EACC1204BF51F8043B04305B
:100B3000F4D0C2F1000102EA0102B2FA82F2C2F17B
:100B40001F0200EBD200704700B50A4C0546206832
:100B500085B01C46C06852B1074BCDE90132009107
:100B60002B462246054900F023F8FFF7C1FC044B51
:100B70001A46F2E7000C00201407010824070108B8
:100B80002007010808B513460022FFF7DDFF00BF6C
:100B90000CB410B582B004AC54F8042B2346019475
:100BA00000F060F802B0BDE8104002B0704700BF2E
:100BB0000EB430B582B005AC54F8042B054D014697
:100BC00023462868019400F04DF802B0BDE830409B
:100BD00003B07047000C0020704700BF704700BF93
:100BE0009368013B002B93600FDA10B49469A34221
:100BF00008DB0A2906D01368581C106019700846D3
:100C000010BC704710BC00F07BBB1368581C106010
:100C100019700846704700BF9BB1F8B513440F46E2
:100C200006465D1E541E01E0AC4208D03A4614F858
:100C3000011F3046FFF7D4FF431CF5D1F8BD00205B
:100C4000F8BD0020704700BF936810B5144613B973
:100C50005360184610BD00F013FE0023C4E90133B1
:100C600010BD00BF2DE9F04F9FB08B4690461C464B
:100C7000039018B18369002B00F0B980A34B9B450A
:100C800000F0BB80A24B9B4500F0C980A14B9B4567
:100C900004BF039BD3F80CB0BBF80C30180740F12D
:100CA000B480DBF81030002B00F0AF80302300213F
:100CB00020228DF8323098F8003005940B918DF891
:100CC0003120954E0127002B00F08980252B00F064
:100CD0001781454603E0252B00F0A58025466B785B
:100CE0006C1C002BF7D1B4EB080A78D0424653466F
:100CF00059460398FFF790FF013070D00B9B6A783C
:100D000053440B93002A6AD000234FF0FF32013482
:100D10000693CDE908338DF85B301C93079206E00B
:100D20002C46069B801B07FA00F0184306902546C8
:100D3000052215F8011B304600F0E6FFAA46002800
:100D4000EED1069BD90644BF20228DF85B201A07FE
:100D500048BF2B22217848BF8DF85B202A2967D114
:100D6000059A1168043200290592C0F29E8009910B
:100D70006178A51C2E2974D0684C0322204600F00F
:100D8000C3FF002800F087804022069B001B02FA68
:100D900000F00343069305F101082B78062219465B
:100DA0005F488DF8303000F0AFFF002800F08380FE
:100DB0005C4B002B72D005AB00935A465A4B06A9E8
:100DC0000398AFF300808146B9F1FF3F07D00B9B3A
:100DD0004B440B9398F80030002B7FF477AFBBF8AF
:100DE0000C305B0618D40B981FB0BDE8F08F00F0F4
:100DF00027FD464B9B457FF445AF039BD3F804B0DA
:100E0000BBF80C3018073FF54CAF5946039800F07B
:100E1000D7FA00283FF44AAF4FF0FF30E4E7039BD6
:100E2000D3F808B038E7B4EB080A3FF46DAF5DE7DC
:100E3000A1F13002092A88BFA2469BD8099B01E094
:100E40002C460135297803EB830302EB4303A1F120
:100E50003002092AAA46F3D92E2904F10205099382
:100E60008AD19AF801102A292FD1059B0AF1020094
:100E70001A680433002A079205939AF802100AF1BF
:100E8000030538DB254C82460322204600F03CFF58
:100E900000287FF479AFA84655467EE7059B0733C7
:100EA00023F007030833059391E7494243F0020317
:100EB000099106935CE705AB00935A461A4B06A9C5
:100EC000039800F0D3F881467EE70023A1F13002B9
:100ED000092A079301D915E05546697803EB830386
:100EE00002EB4303A1F13002092A05F1010AF3D90B
:100EF0000235079340E74FF0FF33824607933BE705
:100F0000444601E7AA46013536E700BF80FC0008E9
:100F100060FC000840FC0008540701085C07010859
:100F20006007010800000000190C000810B4044C10
:100F300013460A460146206810BCFFF793BE00BF67
:100F4000000C00202DE9F0470C460969A568914680
:100F50008D42B8BF0D46156094F8431006461F46F3
:100F6000DDF8208011B16A1CC9F8002023689906B9
:100F70005CD5D9F800200232C9F80020236813F0AC
:100F8000060F19461DD1E1688A1A002AD8BF1946F2
:100F900017DD002504F1190A05E0E368D9F80020FF
:100FA0009B1AAB420CDD0123524639463046C047FE
:100FB000013005F10105F0D14FF0FF30BDE8F087B9
:100FC000216894F84330003318BF01238A060AD5FC
:100FD0003021E21882F8431094F845105A1C22443C
:100FE00082F84310023304F1430239463046C047C9
:100FF0000130E1D02368A26803F00603042B2169C5
:101000001DD08A4226DD4FF00009521A9144002576
:101010001A3401E04D451DDA012322463946304697
:10102000C047013005F10105F4D1C5E713F0060F03
:1010300013D094F84330003318BF0123D3E7D9F815
:101040000000E3688A42A3EB000323EAE379DCDCD7
:10105000002BDCDC0020BDE8F087E168D9F8002037
:101060008A1A002AD8BF194693DCAAE72DE9F04373
:101070000C46097E85B06E2906461746984604F14F
:10108000430C0C986DD039D9732900F0F48044D901
:10109000752900F00281782940F00F8178232268B9
:1010A000DFF854E284F845300168150651F8043B36
:1010B000016040F1A180D10744BF42F020022260CC
:1010C000002B00F093801022002184F84310606808
:1010D0000028A060C0F2C680216821F004012160D0
:1010E000002B40F0A280002840F0BE806546082A10
:1010F00000F0AB80ACEB0503236141E0632900F015
:10110000E3801AD8002938D0582940F0D68084F8D6
:1011100045102268DFF8E4E1C6E76F2900F0BD80E2
:10112000702940F0CA8078232268DFF8CCE142F0D1
:101130002002226084F84530B6E7642902D069298C
:1011400040F0BB8022680368110603F1040557D5FF
:10115000196805600B46002959DB0A22DFF89CE17B
:10116000B5E7036822681D1D6169056015061B68E7
:1011700002D4500600F1BB8019600023654623614C
:10118000CDF800803B4603AA21463046FFF7DAFE41
:10119000013020D02A46236939463046C047013005
:1011A00019D0226803989207E36819D51A1A002A01
:1011B00016DD002504F1190904E0E36803981A1A02
:1011C000AA420DDD01234A4639463046C047013068
:1011D00005F10105F1D14FF0FF3005B0BDE8F08316
:1011E0009842B8BF184605B0BDE8F08321681022C8
:1011F00021F02001216067E7500648BF9BB25AE703
:101200005106A5D5B3F9003005601946A3E72D2096
:1012100061685B42002984F84300A16002DB22F090
:10122000040222600A22DFF8D4E0654600E00B46A3
:10123000B3FBF2F102FB11301EF80000934205F8F7
:10124000010DF4D2082A7FF455AF2368DB077FF540
:1012500051AF626823699A423FF74CAF3023013D9A
:101260002B7047E7002BE0D19EF8003004F14205D7
:1012700084F842303BE703686268191D01601D680D
:101280000021284600F040FD002832D0401B60605D
:101290002061002384F8433072E72268036812F06B
:1012A000800F03F104051AD01B6805606F290CBF7D
:1012B00008220A22DFF844E006E7012384F84210FE
:1012C000236104F14205E4E70122036804F14205C9
:1012D000191D1B68016084F842302261D9E712F0C1
:1012E000400F0DBF1B6805601B880560DEE7198095
:1012F00043E76068CCE700BF7C0701086807010886
:10130000F8B50D461446064608B1836943B3254B2C
:101310009C422AD0244B9C4229D0244B9C4208BF9B
:10132000F468A269A389A2601A0722D5236903B3CE
:1013300022686169D31AEDB299422F4629DD013343
:10134000A168501C0139A1602060157062699A4241
:1013500016D0A389DB0701D50A2D11D03846F8BD78
:1013600000F06EFA0F4B9C42D4D17468D9E7B46890
:10137000D7E72146304600F023F838B92369D7E78C
:101380002146304600F032F90028E7D04FF0FF3711
:10139000E4E72146304600F029F90028F6D1012380
:1013A0002268CDE780FC000860FC000840FC0008D3
:1013B000024B0A4601461868FFF7A2BF000C002046
:1013C0003B4B70B51D6806460C460DB1AB69DBB1F1
:1013D000384B9C421ED0384B9C424AD0374B9C42E3
:1013E00008BFEC68B4F90C2093B2190718D520692E
:1013F00008B313F001022CD000226369A2605B42A3
:10140000A36160B3002070BD284600F019FA294B93
:101410009C42E0D16C68B4F90C2093B21907E6D471
:10142000DD063CD5580726D4206942F00803A38185
:101430009BB20028DDD103F42072B2F5007FD8D032
:101440003046214600F016FCA389206913F0010202
:10145000D2D1990758BF6269A2600028D2D1B4F9ED
:101460000C301A06CFD543F04003A3814FF0FF3074
:1014700070BDAC68B6E7616B51B104F144039942A9
:1014800004D03046FFF742F9B4F90C20002363631F
:101490000023206922F02402C4E90003C5E70923E0
:1014A00042F0400233604FF0FF30A28170BD00BFB8
:1014B000000C002080FC000860FC000840FC0008D4
:1014C0002DE9F0418F890C463A07804641D44B689C
:1014D000002B59DDE66A002E53D0002317F480520A
:1014E000D8F80050216AC8F8003051D10123404695
:1014F000B047431C5FD0A789E66A216A7F0705D5FC
:101500006268636B801A0BB1236CC01A0246002319
:101510004046B047461C45D1D8F80030B4F90C20FD
:10152000002B55D01D2B01D0162B5AD10022236938
:10153000C4E90032616BC8F8005011B304F14403F0
:10154000994202D04046FFF7E1F800206063BDE811
:10155000F0810E69AEB10D680E60B90714BF0023AB
:101560006369AD1BA3600AE02B463246A76A216A75
:101570004046B8470028A5EB000506440ADD002DCB
:10158000F2DC0020BDE8F0810B6C002BA2DCF8E758
:10159000606DB3E7A3894FF0FF3043F04003A381B0
:1015A000BDE8F081002322696360A3892260DA0428
:1015B000C0D56065BEE7D8F80030002B9BD01D2B4E
:1015C0000CD0162B0AD0A38943F04003A381D9E79E
:1015D0002169C4E90013D304ACD5EAE7C8F8005088
:1015E000CFE742F04002A281CCE700BF0B6923B3F2
:1015F00010B5044682B008B18369BBB1104B994263
:1016000012D0104B994216D00F4B994208BFE16897
:10161000B1F90C302BB1204602B0BDE81040FFF705
:101620004FBF002002B010BD6168F1E7019100F0EA
:1016300007F90199E2E7A168EAE70020704700BFD7
:1016400080FC000860FC000840FC000820B1054B4D
:1016500001461868FFF7CABF034B0449186800F039
:10166000B3BA00BF000C00203CFC0008ED150008D8
:1016700000207047014900F0A7BA00BFED1500082F
:101680000020704770B568254A1E05FB02F50E461E
:1016900005F17401FFF78EF8044640B100210C30CB
:1016A000666005F168022160A060FEF7DFFF20465A
:1016B00070BD00BF1E4B70B51D680646AB6943B3D5
:1016C0004835D5E90134013B05D51EE0013B5A1CE4
:1016D00004F1680419D0B4F90C20002AF6D10025D1
:1016E000144B6566C4E90055A560C4E90455A561BD
:1016F0002946E360082204F15C00FEF7B7FFC4E965
:101700000D55C4E91255204670BD2C682CB12546F4
:10171000D7E7284600F010F8D2E704213046FFF75B
:10172000B1FF044628600028F1D10C233360EAE7BA
:101730003CFC00080100FFFF2DE9F84F0023334A6D
:10174000C0E9123312680365904208BF0123304993
:1017500008BF836181620546FFF7ACFF68602846D9
:10176000FFF7A8FFA86028460024FFF7A3FF042383
:101770006E68E8602146F3607466C6E90044B460B0
:10178000C6E90444B46106F15C000822FEF76EFF6E
:10179000DFF888B0AF68DFF888A0DFF88890DFF85E
:1017A00088801C4BC6E9086BC6E90AA9C6F83080D8
:1017B0002146FB6008227C66C7E90044BC60C7E99B
:1017C0000444BC6107F15C00FEF750FFEE68124B69
:1017D000C7E9087BC7E90AA9C7F830802146F3604A
:1017E0007466C6E90044B460C6E90444B46106F115
:1017F0005C000822FEF73AFF0123C6E9086BC6E940
:101800000AA9C6F83080AB61BDE8F88F3CFC00083F
:10181000751600080900010012000200AD1E000844
:10182000D51E0008151F0008351F0008024B03498C
:10183000186800F0C9B900BF3CFC0008ED150008AD
:10184000836903B978E77047704700BF704700BFEE
:10185000704700BF704700BF024B0349186800F093
:101860008FB900BF000C002071160008024B03491D
:10187000186800F085B900BF000C00208116000830
:101880009368002B00F0FC802DE9F04FB1F90C308B
:101890000C469BB2190783B0824690462BD522692D
:1018A0004AB313F00202D8F8006033D000273D4657
:1018B000D4F828B0216ADFF8C492C5B14D452B4653
:1018C0003A4628BF4B465046D847002840F3CE80C2
:1018D000D8F8083007441B1A2D1AC8F80830002B16
:1018E00000F0B380D4F828B0216A002DE6D1D6E903
:1018F00000750836E1E721465046FFF761FD0028F4
:1019000040F03781B4F90C30D8F800609BB213F086
:101910000202CBD113F0010940F0B4804D46A76814
:101920002068002D55D09A0540F1C080AF42BB46DB
:1019300000F2EE8013F4906F2FD0D4E9041707EB78
:101940004707A0EB010B07EBD777681C7F105844C3
:10195000B8423A4684BF07463A465B0540F1F080FC
:1019600011465046FEF726FF002800F0FC805A463C
:1019700021690190FEF704FEA289019B22F4906286
:1019800042F08002A281A7EB0B0203EB0B00676120
:10199000AB462F4623612060A2605A46494600F0BC
:1019A000F9F92368A2685B44AB460025D71BA76002
:1019B0002360D8F80870D944A7EB0B07C8F8087063
:1019C000002F42D0B4F90C30A7689BB22068002DDC
:1019D000A9D1D6E900950836A3E70BF1080353F81F
:1019E000047C9B4653F8086C0833002FF7D03A4626
:1019F0000A21304600F088F9002854D00130A0EBCD
:101A000006094B4620682169BB4228BF3B468842F5
:101A1000626903D9A5681544AB421ADC9A4200F307
:101A200081801346A56A3246216A5046A847051EA2
:101A30001CDDB9EB05096ED00120D8F808302E4422
:101A40005B1B7F1BC8F8083013BB002003B0BDE848
:101A5000F08F31462A4600F09DF9236821462B4439
:101A600023605046FFF7C2FD0028E2D0B4F90C30E5
:101A70004FF0FF3043F04003A38103B0BDE8F08F87
:101A80000020704733469146104617464E469B4607
:101A9000002FA2D00028B4D13A460A21304600F0E7
:101AA00033F90028AAD17B1C9946ABE7236983420E
:101AB00017D36269AA4214D82F4BA76A9D4294BFDC
:101AC0002B466FF0004393FBF2F3216A02FB03F312
:101AD00050464A46B847B0F1000BC7DDA5EB0B05F1
:101AE00067E7AF4228BF2F4649463A4600F052F911
:101AF000A3682268DB1B3A44BB46A3602260002B2C
:101B0000ECD121465046FFF771FD0028E6D0ADE745
:101B10002F46AB4641E721465046FFF767FD0028B8
:101B20008BD0A3E71A4631461D46019300F032F9E7
:101B3000A1682268019BC91A1344A160236078E759
:101B4000504600F08DF9034600287FF41CAF216950
:101B50005046FEF7DBFD0C22B4F90C30CAF8002029
:101B600023F0800384E70C22B4F90C30CAF800207B
:101B70007EE74FF0FF3069E7FEFFFF7F00FCFF7F4D
:101B80002DE9F04110F148071AD088460026D7E920
:101B90000154013D0ED4A389013D012B06D9B4F9AE
:101BA0000E30013302D02046C04706436B1C04F1BF
:101BB0006804F0D13F68002FE9D13046BDE8F081DC
:101BC0003E463046BDE8F0812DE9F84310F1480665
:101BD0001ED0884607464FF00009D6E90154013D62
:101BE00010D4A389013D012B08D9B4F90E3001337B
:101BF00004D021463846C04749EA00096B1C04F16D
:101C00006804EED13668002EE7D14846BDE8F88377
:101C1000B1464846BDE8F88370B50C46B1F90E10E0
:101C200096B0002916461D4613DB6A460CF01FF8D5
:101C300000280EDB019A4FF4806302F47042A2F593
:101C40000052B2FA82F2002052092A60336016B0C4
:101C500070BD0022A3892A601B0604D54023002002
:101C6000336016B070BD4FF480630020336016B04F
:101C700070BD00BF8A890B46920706D5012103F18A
:101C8000470259611A601A61704770B582B001ABA2
:101C90006A460C460646FFF7BFFF009905463046E8
:101CA000FEF788FDB4F90C3070B1164A0099B262A3
:101CB000019A43F08003A3812060C4E904018AB93A
:101CC0002B43A38102B070BD9A05FBD4012123F000
:101CD000030304F1470243F00203A3816161226020
:101CE0002261EFE73046B4F90E100BF0CCFF10B9CB
:101CF000B4F90C30E4E7A38923F0030343F00103B4
:101D00001BB2DDE775160008830770B4CDB23DD075
:101D1000541E0AB30378AB421FD0431C05E014F1F4
:101D2000FF3419D30278AA4217D013F0030F1846D4
:101D300003F10103F3D1032C11D84CB30378AB4268
:101D40000BD00444431C02E00278AA4205D09C4216
:101D5000184603F10103F7D1002070BC704702461A
:101D60000E02B6B22E4346EA06461368104673408A
:101D7000A3F1013121EA030313F0803F02F10402D1
:101D8000DCD1043C032C1046EFD8D6E71446D2E74A
:101D90002046E2E78842F0B40DD98B1883420AD975
:101DA000841832B1224613F8014D994202F8014DD0
:101DB000F9D1F0BC70470F2A0ED80346541E002AF2
:101DC000F7D001340C44013B11F8012BA14203F878
:101DD000012FF9D1F0BC704740EA01039B073AD1CB
:101DE000A2F110073F0901F1200606EB071601F1E9
:101DF000100300F1100453F8105C103344F8105C29
:101E000053F81C5C103444F81C5C53F8185C44F81C
:101E1000185C53F8145CB34244F8145CEBD17B1C9F
:101E20001B0112F00C0F194402F00F05034415D0EA
:101E30000E46043DAD0803EB850C1C1F56F8047BD1
:101E400044F8047F6445F9D10135AD002B442944A1
:101E500002F00302B2E7541E0346B2E72A46ADE79A
:101E600009B3F8B51446CAB106460D4600F066F847
:101E7000A04202D32F463846F8BD21463046FEF731
:101E800099FC07460028F6D022462946FEF778FB43
:101E900030462946FEF73AFC3846F8BD2746FEF79D
:101EA00035FC3846F8BD1146FEF784BC10B50C462B
:101EB000B1F90E100BF0C3FE002803DB636D034481
:101EC000636510BDA38923F48053A38110BD00BFB7
:101ED000002070472DE9F041B1F90C409846E30528
:101EE0000D461746B1F90E10064609D424F4805465
:101EF000AC8143463A463046BDE8F0410BF0A6BE01
:101F0000022300220BF0A0FEB5F90C40B5F90E102B
:101F1000ECE700BF10B50C46B1F90E100BF094FEC3
:101F2000A389421C0EBF23F4805343F480536065A1
:101F3000A38110BDB1F90E100BF08ABE51F8043C1C
:101F4000181F002BBCBF0B58C01870470E4A002347
:101F5000114610B5147C84420FD11C225343CA1879
:101F6000906848B1CB58FF2818BF43434FF0010099
:101F700018BF5B000133536010BD0133052B02F124
:101F80001C02E7D10020F7E7840D0020F0B50A4DD0
:101F900000242E462F7C874207D11C2000FB0464BE
:101FA000012021766276A376F0BD0134052C05F17F
:101FB0001C05EFD10020F7E7840D0020094A30B559
:101FC00000231446157C854205D11C22012002FB0A
:101FD0000343996030BD0133052B02F11C02F1D19E
:101FE0000020F7E7840D0020094A30B5002314468D
:101FF000157C854205D11C22012002FB0343596058
:1020000030BD0133052B02F11C02F1D10020F7E7AE
:10201000840D002070B50B4C00232546267C86429B
:1020200009D11C204343E818E95000238260C360B3
:102030004374012070BD0133052B04F11C04EDD164
:102040000020F7E7840D002070B500252E462B4CAC
:102050006368002B4FD0E06808BB637CB3FA83F35E
:102060005B09637409F04AFED4E900239342E060FF
:102070002BD266606674E66063690BB1207C98477A
:10208000207CFF2824D100221146104607F096FC40
:102090000135052D04F11C04DAD1012070BD09F0D1
:1020A00073FE23689842D8D26368002BE4D02046A0
:1020B00002F092FC0028EBD0637C207CB3B1FF28B7
:1020C0000CD1A27E617E207EE0E79B1A6360EBE785
:1020D0000728DDD800231A46194604E00728D7D878
:1020E000A37E627E217E06F0FFFDD1E7FF28CAD0E5
:1020F0000728CDD8EFE76374E360C9E7840D0020BB
:1021000007B543788DF8003083788DF80130C378B7
:102110008DF8023043798DF80330037968468DF8E5
:1021200004300DF0F3FB03B05DF804FB08B5074B7A
:102130005A78032A07D8586809F026FEC72894BFA2
:102140000020012008BD0020FCE700BFA40C0020F7
:10215000704708B5002280214FF080400BF017FF38
:10216000FFF7F6FF00BF00BF00BF00BF00BF00BF0A
:1021700000BF00BF00BF00BF00BF00BF00BF00BF67
:1021800000BF00BF00BF00BF08BD08B501F00AFBDB
:1021900008BD000008B5054C20780CF0B3FE20788F
:1021A000FFF7F3FF05200AF03AFDF5E7F8340020C9
:1021B00010B5084C236803F07142074B13432360AA
:1021C00009F09CFD054B18602068BDE8104004F044
:1021D000AABA00BFF83400200001010EBC0F002095
:1021E00010B5064C0122204602210BF0D0FE02233E
:1021F000A361BDE8104001F079BB00BF00040040BE
:1022000001207047144B10B51C78BCB9134B1B78D8
:10221000042B13D104F074F904F088F904F03AF9AE
:1022200004F0B4F905F074FB05F08EFB204609F0CC
:10223000FFFB2046BDE8104009F016BC0DF06AFB1C
:1022400048B10CF055FE0028FBD1BDE810404CF21F
:1022500050300AF0E4BC10BDF8340020AC37002048
:1022600038B500230D460B70074C30B109F046FD20
:10227000002320602B70002038BD206809F084FD09
:102280003228F3D8F7E700BFCC0F0020084B9A782C
:10229000012A07D0022A09D0064B1868B0FA80F04C
:1022A0004009704758780128F6D170470120FCE7B3
:1022B000A40C00203011002008B5054B9B78013B91
:1022C000012B02D9FFF7E2FF08BD0120FCE700BFA8
:1022D000A40C002008B509F011FD014B986008BD61
:1022E000A40C00202DE9F0410C46154607460028B5
:1022F00037D0B1FA81F35B099BB1554E554A33781B
:10230000002C32D00221012B91610AD030460BF013
:102310001DFE30460BF0E2F94F48504B836009F048
:1023200053FBA74201D0FFF76DFF4D4E3378A34218
:1023300000D11DB100224B4B9A619A83347024B1B5
:10234000631E042B747098BFB470306804F0EBF90E
:102350003378062B76D8DFE803F0731936404A54F9
:102360005E000B1C18BF0123C6E74FF40031042B9D
:102370009161D6D03C4BDFF8E0801C703B4B30467F
:10238000C8F8083009F076FF4046C8E7312075B13B
:102390000DF038FA52200DF035FA01200DF03EFA1A
:1023A0004EF26F4143F22D400DF092FA51200DF0A4
:1023B00029FAFFF78FFF2A462146384601F0A4FE8E
:1023C0000120BDE8F0813220002DF0D00DF01AFA86
:1023D00052200DF017FA0220E0E73320002DE6D05E
:1023E0000DF010FA52200DF00DFA0320D6E734203C
:1023F000002DDCD00DF006FA52200DF003FA042077
:10240000CCE73520002DD2D00DF0FCF952200DF094
:10241000F9F90520C2E73020002DC8D00DF0F2F9FF
:1024200013480DF021FA13480DF038FA4EF26F41BF
:1024300043F22D400DF04CFA52200DF0E3F9B5E7D0
:102440001120B4E711200DF0DDF9FFF7B1FEB0E780
:10245000AC37002000040040900F0020012100084C
:10246000F8340020640C00204425002039C3000803
:102470002DFD000830FD0008002313B50DF1070104
:102480008DF80730FFF7ECFE044690B19DF8073059
:10249000013B032B0DD8DFE803F002060F120022E8
:1024A0001146094B02E00022074B99781878FFF794
:1024B00019FF204602B010BD00220621F1E7024BB1
:1024C00000225978F2E700BFF834002013B5124C0F
:1024D00020460CF09FFC0123A37704F021F90F4C58
:1024E000206008B9FFF764FEE37843F00103E3706E
:1024F00009F004FC0A4BFF22186000234FF4A87176
:1025000000930848084B0AF057FBFFF722FE012012
:10251000FFF7B2FF02B010BD640C0020F8340020B9
:10252000BC0F0020D00F00209521000838B5124CB8
:10253000054623782070637009F0E0FB032D60608E
:1025400019D10120FFF798FF38B90C4B1A785AB10E
:10255000597802460846FFF7C5FEFFF7BBFEBDE807
:10256000384053200DF04EB9054909780129F4D1BE
:1025700011465878EFE738BDA40C0020F83400204D
:10258000AC37002048B1074A1378013B012B07D82C
:1025900093782BB90320FFF7C9BF0122024B1A70B1
:1025A000704700BFA40C0020C80F0020014B187812
:1025B000704700BFA40C0020014B9870704700BF0B
:1025C000A40C0020014B9878704700BFA40C002099
:1025D000014BD870704700BFA40C00200122014BB2
:1025E0001A707047C80F0020F8B51C4C1C4DE278DB
:1025F000A968C2F3420219B9FFF76CFE0020F8BDCA
:10260000184B53F8227023782BB9174B1B78042BE7
:1026100001D1FFF75FFE154E327892B1002333707F
:102620004FF080431B69E278DB0963F300022378F3
:10263000E27073B101F024FF0028DFD101F0D6F879
:10264000DDE7002FDAD0A86809F09EFBB842E5D29A
:10265000D4E7054B1B78042BECD1CDE7F8340020F0
:10266000A40C0020DCFC0008AC370020C80F0020C0
:102670000C4B10B55A781946012A03D0022A08D00B
:10268000002005E09C78012C03D101F021F92046BF
:1026900010BD486809F078FBC728F1D9FFF7F6FDAF
:1026A000F6E700BFA40C002008B5074BDB780BB1A0
:1026B000022B04D10220FFF739FF002008BD0320C0
:1026C000FFF734FF0120F9E7A40C002038B50A4DCC
:1026D0000024EB78033B012B08D80320FFF726FFEB
:1026E0002046AC7001F092F8012038BD0220FFF7BF
:1026F0001DFF2046F9E700BFA40C002010B50A4CCE
:10270000E378032B0AD3042B08D80320FFF70EFF2E
:102710000020A07001F09AF8012010BD0220FFF700
:1027200005FF0020F9E700BFA40C002070B5884C1D
:10273000884D2068B8B109F027FBB0F5FA6F12D3C5
:102740000026552026600DF05DF857200DF05AF850
:1027500070200DF057F8287832460146B0FA80F024
:102760004009FFF7BFFD2B7823B17B4B93F8202066
:102770007A4B1A702368DBB9794E306809F004FB94
:1027800040F6B733984213D92B788BB10CF0B0FBDD
:1027900070B9714CA37F5BB109F0B0FA306053207F
:1027A0000DF030F894F8213013B970200DF02AF8AC
:1027B0004FF080431B69EA78DB096A4C63F300023F
:1027C0000020EA70FFF758FE2378032B1ED8DFE8BD
:1027D00003F002284F9EE36833B1984720B10120EF
:1027E000FFF7A4FE0023A370236933B1984720B1FB
:1027F0000120FFF79BFE0223A370636933B1984762
:1028000020B10120FFF792FE0123A3700CF0F4FE2B
:10281000554B1B78002B00F09980BDE8704002F00A
:10282000A3BEA369002BF1D098470028EED002F098
:10283000F5F84E4B187007F067FE2A784C4B1A706B
:102840000022454B9A772A684A4B134063B94A4C99
:102850002378012B08D00222484B20469A610BF0C6
:1028600075FB20460AF03AFF0220FFF75FFECDE736
:10287000E369002BCAD098470028C7D00022404BFC
:102880001A704FF080434FF400129A61A37843B35B
:10289000022B0BD86378022B08D0FFF7B3FC112072
:1028A0000CF0B0FF0CF024FB0028FBD100F090FFEF
:1028B0000023E3702E4B2A781B789A4208D12A68AD
:1028C0002C4B1340B3F1807F02D0A07800F05CFC69
:1028D000A378012B18D0A3B1022B97D1FFF7F6FEF6
:1028E00094E71D4B5B7E002BE0D111200CF08AFF9A
:1028F0000CF0FEFA0028FBD147F230500AF08FF9B5
:10290000D4E7FFF7D1FE81E7FFF7F8FE7EE7236A01
:10291000002B3FF47BAF984700283FF477AF0122AC
:102920000D4B9A77114B1B782BB14FF0804320222F
:102930009A6107F0D7FD002400F012FB104B1C70C9
:1029400000F03AFFFFF7C6FC20468EE770BD00BFDF
:10295000BC0F0020F8340020640C00204425002027
:10296000C40F0020A40C0020C10F0020B80F0020CD
:10297000C00F0020FF000001AC3700200004004021
:10298000C80F00200120704708B5FFF7FBFF08BD06
:1029900037B504460D46FFF79DFC29462046FFF754
:1029A000F3FF60B1074B1A784AB1074B20461B78FA
:1029B000D9090091C3F30013A9780CF041FE03B0CC
:1029C00030BD00BFF83400200635002000B50B4BA9
:1029D0008FB093F821300A4A322101A804F04FFE4B
:1029E00001A808F043FB0CF07FFA08F03FFB054814
:1029F00008F03CFB0FB05DF804FB00BF640C002046
:102A0000FCFC00080BFD00082B4B13B51A7804469C
:102A10004AB12A4B01211B78DB09009300230CF0FB
:102A20000FFE02B010BD0028FBD0031FDBB2A02BAD
:102A300012D8234B0146186809F050F820B12046FF
:102A400003F020FD03F0A2FD204603F013FD02B0C9
:102A5000BDE8104003F09ABD00F12003DBB2072B64
:102A600007D800F007040120A040C0B203F038FDF1
:102A7000EDE700F15B03DBB2022B06D8114AD05C14
:102A800002B0BDE8104008F0D3BF00F15803DBB23C
:102A90001A2B07D80C4A32F8130002B0BDE81040D8
:102AA00008F0E2BF3334E4B2122CBAD8012102B0EC
:102AB000BDE8104002F03EBEF8340020063500208C
:102AC000340E0020A0FC0008A4FC0008244B13B521
:102AD0001A7804464AB1234B1B78DB090093002384
:102AE00019460CF0ADFD02B010BD0028FBD0031F4D
:102AF000DBB2A02B06D803F0C5FC02B0BDE8104045
:102B000003F044BD00F12003DBB2072B07D800F02F
:102B100007040120A040C0B203F0EAFCEDE700F199
:102B20005B03DBB2022B05D8104602B0BDE81040B3
:102B300008F07EBF00F15803DBB21A2B05D810460F
:102B400002B0BDE8104008F08FBF3334E4B2122C5D
:102B5000C9D8114602B0BDE8104002F0EBBD00BF7D
:102B6000F8340020063500202DE9F3410546C0B1B8
:102B7000114E3278C2B10127DFF84080284602F0BA
:102B80006AFD044698F80030E030DB0900933278A3
:102B90000023012180B207FA04F40CF051FDA54393
:102BA000ECD102B0BDE8F08103F09AFC02B0BDE8C0
:102BB000F04103F0EBBC00BFF834002006350020E4
:102BC0002DE9F3410546C0B1114E3278C2B101275B
:102BD000DFF84080284602F03EFD98F800300446B9
:102BE000DB0900930023E0303278194680B207FAFF
:102BF00004F40CF025FDA543ECD102B0BDE8F08152
:102C000003F076FC02B0BDE8F04103F0BFBC00BFAA
:102C1000F8340020063500202DE9F3410546C0B107
:102C2000114E3278C2B10127DFF84080284602F009
:102C300012FD044698F80030E030DB09009332784A
:102C40000023012180B207FA04F40CF0F9FCA5433B
:102C5000ECD102B0BDE8F08103F058FC02B0BDE851
:102C6000F04103F093BC00BFF8340020063500208B
:102C70002DE9F3410546C0B1114E3278C2B10127AA
:102C8000DFF84080284602F0E6FC98F80030044661
:102C9000DB0900930023E0303278194680B207FA4E
:102CA00004F40CF0CDFCA543ECD102B0BDE8F081FA
:102CB00003F034FC02B0BDE8F04103F067BC00BF94
:102CC000F8340020063500202DE9F04104460E4678
:102CD00001F0DEFAE8B92378013B142B4DD8DFE888
:102CE00003F00B1B4761677174747479C97F838922
:102CF000929B9EA1AAB3BC00002363700C23A37017
:102D0000604B31461B782046002B40F0B88009F01C
:102D100029FB0120BDE8F0816378013B032B2CD80F
:102D2000DFE803F0020C0F2008F0E8FF030EA370A9
:102D3000030CE370030A23716071E1E707F068FE9A
:102D4000F4E7254615F8027F04F11E08052FD7D8B1
:102D5000F8B204F06DF805F8010F454507F10107D9
:102D6000F4D1CDE70023A370E37023716371C7E74B
:102D70006378022B04D0052B10D0FF232370BFE70C
:102D8000E378A07840EA0320237940EA034063799E
:102D900040EA036000BA07F03EFEB1E7A07807F012
:102DA00063FEADE7E278A178607808F057FAC1E7F2
:102DB00022796379A17843EA02236078E27808F007
:102DC00063FA9DE708F0B0FA9AE73146204607F02B
:102DD000C6FE95E7002007F001FE07F026FE8FE70C
:102DE00008F02AFB60708BE708F028FB030A637089
:102DF000A07085E76078A378221DE17843EA00207F
:102E000008F01FFB7CE76078A378221DE17843EA95
:102E1000002008F030FB73E708F040FB70E708F093
:102E200013FADFE76078A378221DE17843EA0020F7
:102E300008F0C4FA64E76078A378221DE17843EAD9
:102E4000002008F0D1FA5BE7E278A178003218BFE1
:102E50000122607808F02DFA6CE7E2782179637935
:102E6000003243EA012318BF0122A178607808F0FC
:102E70003FFA45E70123044A6370137040E70CF002
:102E8000A1FD46E7F8340020C10F002010B54378BB
:102E9000044613B1FF23237011E08378013B032B19
:102EA000F8D8DFE803F0021A28410378072B07D08F
:102EB000082BEFD1294BDB78C3F34203C37010BD5D
:102EC000C1780729FBD8BDE81040244BDA7861F3BC
:102ED0004302DA70186803F026BC0378072B05D08C
:102EE000082BD7D101F0DCFAE070E8E7C078BDE844
:102EF000104001F0A3BB0378072B0AD0082BC9D1DF
:102F000042790179C07801F0CDFAA071000AE07130
:102F1000D5E7C2798379017943EA0223BDE81040FD
:102F20004279C07801F0D4BA0378072B0BD0082B74
:102F3000B0D12379C078A21D617943EA0020BDE8B1
:102F4000104001F0DABA2379C078A21D617943EA12
:102F50000020BDE8104001F0EABA00BFF8340020BC
:102F600008B508F0CBFE014B186008BD2011002009
:102F7000164B10B51C788CB9154B1B78052B08D057
:102F8000022B06D008F0BAFE124B1860124B1C70D0
:102F900010BD4FF080431B691B0603D4BDE81040F1
:102FA000FFF7DEBF0B4B18680028F7D008F0ECFEE7
:102FB00041F657339842EBD9FFF7D2FFBDE81040F6
:102FC0000122054B1A70FFF709BB00BFF83400203F
:102FD000AC3700202011002024110020F8B5124B3E
:102FE0001F7817B101242046F8BD104D2B78052B12
:102FF000F8D1B5F84C309B0702D50D4E347824B982
:10300000FF2894BF00240124EDE7FFF7CFFA03283F
:10301000E8D83770FFF7A4FF28460AF00BFC2846D3
:1030200001F074F9DFE700BFF8340020AC3700206E
:1030300024110020704700001A4B70B59C6C0F26BD
:1030400044F4C0649C649B6C012301F003048B4036
:1030500021F0030101F1804101F5A0518D68A40028
:10306000C0F38320A04006FA04F425EA04052843AF
:103070008860D8430C4912F0010F8C6814BF1C43C0
:1030800004408C6012F0020FCA6814BF1A43024059
:10309000CA60054A536111680B43136053680340CB
:1030A000536070BD000C0140001800400F281FD86D
:1030B000DFE800F0080C0F121518181818181B1B61
:1030C0001B1B1B1B062108460AF0F3BD0621072027
:1030D000FAE706210820F7E706210920F4E7062190
:1030E0000A20F1E706211020EEE706212120EBE778
:1030F000704701207047000010B5FFF7FAFF002865
:1031000036D00C22032418211A4B12209C62DA625A
:10311000194AC2F8901000229A62DA62174A012115
:10312000136C43F4807313644FF47062144B5A644D
:103130005A6C02F470625A640BF0E4FD06212320FD
:103140000AF0B7FD012207214FF08040FFF774FF1E
:103150000720FFF7ABFFFFF735FA48B922460948C9
:103160000721FFF769FFBDE810400720FFF79EBF6A
:1031700010BD00BF0000014000040140000C0140F0
:10318000004C0140000400402DE9F0473023054683
:1031900083F31188FFF7B0FF00264FF00108994F25
:1031A000DFF86C9257F8040B95B1012D4CD14845CE
:1031B0004AD120F00F0A00F00F0008FA00F421466F
:1031C0000522504624040AF0E2FECAF8184001E045
:1031D000441CEED10136042EE4D1062401278A4E88
:1031E00056F8040B002D3BD0012D40F0FD80B0F1CE
:1031F000804F40F0F98000F00F01202207FA01F122
:1032000020F00F000AF0C3FE00BF00BF00BF00BFE8
:1032100000BF00BF00BF00BF00BF00BF00BF00BFB6
:1032200000BF00BF00BF00BF00BF00BF56F8040CC6
:10323000022200F00F08414620F00F00FFF7FCFECD
:103240004046FFF733FF0DE0411CC3D000F00F01F3
:10325000202208FA01F120F00F000AF098FEB9E7E9
:10326000421CC8D1013CBBD1684B4FF40061DA6C01
:10327000674822F00802DA642246DB6C0AF087FE17
:1032800000BF00BF00BF00BF00BF00BF00BF00BF46
:1032900000BF00BF00BF00BF00BF00BF00BF00BF36
:1032A00000BF00BF03220B215948FFF7C5FE0B20CA
:1032B000FFF7FCFE84F3118872B601202646554ABA
:1032C000136823F001031360534B544A5A610022E0
:1032D000B30003F1604303F56143D3F80011D4B2A6
:1032E000012C94BF002101F0010109B1C3F8800154
:1032F0000132202AF1D10136082EE8D1484C494D3F
:10330000636843F0007363602B6803F009032B606C
:103310002B6843F46C3343F004032B6040F2B33367
:103320002B62414B43F001039847236943F00403A8
:10333000236130BF3D4B002743F0010398472369C9
:10334000344A23F0040323611368304C43F0010333
:103350001360E36943F08003E361A36C43F40073FB
:10336000A36409F02BF80323AB620C23304AEB6211
:10337000D2F8903023F01803C2F89030AF62EF62B9
:10338000236C43F480732364236C43F002032364AF
:1033900001236363E367E3666661636943F00403E3
:1033A0006361636943F00103636103F075FD40F2FB
:1033B00082324FF4006116480AF0E9FDE36C43F0F5
:1033C0000803E364E36CA36C43F48053A364A36C2D
:1033D000E36C43F01003E364E36CFFF72BFE87F329
:1033E000118862B6BDE8F087431C3FF43BAF00F0A4
:1033F0000F01402207FA01F120F00F000AF0C7FD8B
:1034000030E700BF4CFD0008B8FD0008000C01408B
:103410000008004010E000E000180040FFFF070037
:1034200000ED00E00000014090FD00085CFD000898
:1034300000040140012070470120704701238B40A8
:10344000034210B50C4613D00B2918D8DFE801F061
:103450001517061717171711171717130420FFF75B
:10346000B7F82046FFF7E6FF10B12046FFF7E4FF6C
:1034700010BD0320F3E70220F1E70520EFE701206C
:10348000EDE7000008B50D4B5A69D20707D51A6859
:10349000002122F001021A600120FFF7CFFF402235
:1034A000074BC3F88020BFF34F8FBFF36F8F01220C
:1034B000024B5A61BDE8084009F0A6BC0018004064
:1034C00000E100E008B50D4B586910F0020006D08D
:1034D0001A68012122F002021A60FFF7AFFF802272
:1034E000074BC3F88020BFF34F8FBFF36F8F0222CB
:1034F000024B5A61BDE8084009F086BC0018004044
:1035000000E100E008B50E4B586910F0040006D049
:103510001A68022122F004021A60FFF78FFF4FF4AD
:103520008072084BC3F88020BFF34F8FBFF36F8FBB
:103530000422034B5A61BDE8084009F065BC00BF96
:103540000018004000E100E008B50E4B586910F08B
:10355000080006D01A68032122F008021A60FFF75B
:103560006DFF4FF40072084BC3F88020BFF34F8FFC
:10357000BFF36F8F0822034B5A61BDE8084009F082
:1035800043BC00BF0018004000E100E008B50E4B4E
:10359000586910F0100006D01A68042122F01002B9
:1035A0001A60FFF74BFF4FF48062084BC3F880208E
:1035B000BFF34F8FBFF36F8F1022034B5A61BDE8EB
:1035C000084009F021BC00BF0018004000E100E005
:1035D00038B5254B5C69A20604F4787507D51A68DE
:1035E000052122F020021A602846FFF727FF600617
:1035F00008D51D4A06211368284623F040031360AE
:10360000FFF71CFF210608D5174A07211368284633
:1036100023F080031360FFF711FFE20508D5124A7B
:1036200008211368284623F480731360FFF706FF10
:10363000A30508D50C4A09211368284623F4007312
:103640001360FFF7FBFE4FF48032084BC3F8802075
:10365000BFF34F8FBFF36F8F4FF47872024B5A61F5
:10366000BDE8384009F0D0BB0018004000E100E0A0
:1036700038B52A4B5C69620504F47C4507D51A68A5
:103680000A2122F480621A602846FFF7D7FE23053C
:1036900008D5224A0B211368284623F400631360DF
:1036A000FFF7CCFEE00408D51C4A0C21136828461D
:1036B00023F480531360FFF7C1FEA10408D5174A15
:1036C0000D211368284623F400531360FFF7B6FE5C
:1036D000620408D5114A0E211368284623F480435A
:1036E0001360FFF7ABFE230408D50C4A0F211368C3
:1036F000284623F400431360FFF7A0FE0222084B84
:10370000C3F88420BFF34F8FBFF36F8F4FF47C4219
:10371000024B5A61BDE8384009F076BB0018004002
:1037200000E100E008B50E4B586910F4802006D087
:103730001A68122122F480221A60FFF77FFE082205
:10374000084BC3F88420BFF34F8FBFF36F8F4FF444
:103750008022034B5A61BDE8084009F055BB00BF09
:103760000018004000E100E010B5074C23784BB989
:1037700001F05EF901F08DFF08F02CF901F08AFFED
:1037800001232370012010BD2611002010B5044C28
:1037900023781BB101F016FA00232370012010BD1D
:1037A00026110020024B1B780BB10BF0F5BF7047C0
:1037B000291100200120704708B5044B1B780BB974
:1037C000FFF7D2FF01F045F908BD00BF2611002028
:1037D00008B5044B1B780BB1FFF7D8FFFFF7EAFFE2
:1037E00008BD00BF261100200120704708B5FFF773
:1037F000FBFF08BD014B1878704700BF2711002060
:10380000014B1870704700BF27110020014B187042
:10381000704700BF27110020014B1878704700BF88
:1038200028110020084B10B50446187058B9FEF74F
:10383000BDFE022807D80320FEF778FE2046BDE82B
:103840001040FEF7B9BE10BD28110020FFF7EABFF7
:10385000024B187880F00100FFF7E4BF2811002028
:103860000020FFF7DFBFFFF7F3BF0000024B18781F
:1038700080F00100704700BF28110020084B1A7823
:10388000084B1B784BB982F00102A0F5A443203B02
:103890001F2B8CBF1046012070470022F5E700BFA8
:1038A000281100202711002000231946064A937290
:1038B00013609375D360054A01330B2B917242F864
:1038C0000C1BF9D1704700BF1C0E0020C80C002053
:1038D00008B503F059FBFFF7E7FF0022014B1A6020
:1038E00008BD00BF301100200120704708B5FFF768
:1038F0003BFFFEF7EBFD01F0AAF848B101222021C1
:103900004FF080400AF043FB4FF0804320229A6141
:1039100008BD000000230D4A10B513700C4A4FF08B
:10392000804413700B4A136006F006FE01280AD08B
:1039300006F0FAFD4FF40013A36101F0D7FCBDE8D7
:10394000104002F090BF2023F6E700BF25110020B1
:103950002A1100202C11002008B502F049FF05F0C3
:1039600093F902F0D6FE084B188060F07F001870C3
:10397000188802F0D1FE01F0D1F818B1BDE8084076
:10398000FFF7C8BF08BD00BF0635002037B50446A5
:103990000D4601F02FFC002800F0BD80002D00F046
:1039A000BA8047F604639C4200F0858029D847F628
:1039B00001639C425BD00AD847F603439C4200F067
:1039C000A780B4F5FC4F3CD0284603B030BD47F685
:1039D00002639C425DD047F603639C42F4D100230E
:1039E0000DF1070101208DF80730FEF739FC9DF835
:1039F0000730042B02D013F0FD0FE5D10122042182
:103A000030E047F612639C427BD00BD847F6056343
:103A10009C4263D047F611639C42D5D10020FFF74A
:103A200001FFD1E747F613639C426ED047F643632C
:103A30009C42C9D10122394B1A700022384B1A60BE
:103A4000C2E700230DF1070101208DF80730FEF7D2
:103A500007FC9DF80730042B02D013F0FD0FB3D103
:103A6000012211462F4B1878FEF73CFCACE70023EF
:103A70000DF1070101208DF80730FEF7F1FB9DF8ED
:103A80000730042B02D013F0FD0F9DD1012202213B
:103A9000E8E700230DF1070101208DF80730FEF75C
:103AA000DFFB9DF80730042B02D013F0FD0F8BD104
:103AB00001220321D6E700230DF1070101208DF833
:103AC0000730FEF7CDFB9DF80730042B03D013F031
:103AD000FD0F7FF479AF01220521C3E700230DF12B
:103AE000070101208DF80730FEF7BAFB9DF807307B
:103AF000DA1E012A02D9002B7FF466AF01220621CB
:103B0000B0E70122084B1A705EE7FFF7A1FE5BE702
:103B1000FFF722FF58E7054656E700BF2A110020AD
:103B20002C110020F83400202811002070B5FEF779
:103B3000FDFD002501261B4C206858B1A37A4BB926
:103B400008F022F96368984204D3A6720121208903
:103B5000FFF71CFF0C3415B30026134C206858B136
:103B6000A37A4BB908F010F96368984204D3A572A0
:103B700001212089FFF70AFF01360B2E04F10C0406
:103B8000ECD10A4B1A783AB100221A700BF0B0F956
:103B90000028FBD1FFF7E0FE00F05EFF70BD0125BD
:103BA000CAE700BF1C0E0020C80C00203C110020FA
:103BB00008B5064B1B780BB9FFF7D6FD4FF08043D5
:103BC00020229A61BDE8084008F062B82611002062
:103BD0002DE9F7430D46BA4A897804461368E9B1DE
:103BE000032B00D80133B74F1360FEF773FB3889FE
:103BF000844217D0B88A84420CD14FF0010995F85D
:103C000002800C26B8F1000F0FD008F077F806FB01
:103C100009F6B851AC4B0027984631E0002BE2D0B2
:103C2000013BE0E74FF00009E9E706FB09F607EB87
:103C3000060999F80A300BB9BB51EBE74146FFF78B
:103C4000A5FE89F80A8047F806800028E2D1002006
:103C50009BE07E4308EB0607BB7A13B948F80630B1
:103C60001CE049462046FFF791FE87F80A9048F885
:103C7000069098B9EBE701370B2F03F10C030DD039
:103C80001A899442F7D195F802900C26B9F1000FE9
:103C9000DFD008F033F87E4348F806002946204676
:103CA000FFF7ECFD0028D2D02946204600F098FF0F
:103CB0000028CCD047F604639C4200F0C8802CD882
:103CC000B4F5FC4F6ED009D847F620039C4200F0B3
:103CD0001C8147F603439C42B9D02EE047F60263AD
:103CE0009C42AB7800F098807BD9002BAFD0774C0A
:103CF0002278042AABD000230DF1070101208DF8B2
:103D00000730FEF7ADFA9DF80730042B02D013F010
:103D1000FD0F9CD1002204215FE047F640639C42E6
:103D200025D01CD847F606639C4200F0D580C0F031
:103D3000AA8047F607639C4231D02946204600F00E
:103D40009DFC002883D029462046FFF747F900282C
:103D50003FF47DAF29462046FEF71AFE15E047F6F0
:103D600042639C4214D009D347F64363B3E7AB7870
:103D7000002B3FF46CAFFEF729FE68E7A878544BA0
:103D800010B101221A7062E7187003B0BDE8F08329
:103D9000AB78002B3FF45BAFFEF720FC57E7AA7827
:103DA0004C4BEFE7AB78002B3FF451AF474C2278F8
:103DB000012A3FF44CAF00230DF1070101208DF8DB
:103DC0000730FEF74DFA9DF80730042B03D013F0AF
:103DD000FD0F7FF43CAF002201212078FEF782FA2C
:103DE00035E7002B3FF433AF384C2278022A3FF4FA
:103DF0002EAF00230DF1070101208DF80730FEF7EB
:103E00002FFA9DF80730042B03D013F0FD0F7FF439
:103E10001EAF00220221E0E7002B3FF418AF2B4C2D
:103E20002278032A3FF413AF00230DF1070101208C
:103E30008DF80730FEF714FA9DF80730042B03D0F5
:103E400013F0FD0F7FF403AF00220321C5E7AB7829
:103E5000002B3FF4FCAE1D4C2278052A3FF4F7AE50
:103E600000230DF1070101208DF80730FEF7F8F966
:103E70009DF80730042B03D013F0FD0F7FF4E7AE5D
:103E800000220521A9E7AB78002B3FF4E0AE0F4CF0
:103E90002278062A3FF4DBAE00230DF10701012052
:103EA0008DF80730FEF7DCF99DF80730DA1E012A9D
:103EB00002D9002B7FF4CBAE002206218DE700BF94
:103EC000301100201C0E0020C80C0020F834002007
:103ED0002911002025110020AB78002B3FF4B7AE4C
:103EE000114C2278002A3FF4B2AE00230DF10701F5
:103EF00001208DF80730FEF7B3F99DF80730012B4C
:103F00003FF6A5AE0022114667E7AB78002B3FF4E1
:103F100014AF06F011FB4FF0804318B14FF40012BC
:103F20009A610AE72022FBE7F8340020014B187859
:103F3000704700BF3411002001207047F8B50546D6
:103F40000C46584E584F21462846FFF7F5FF50B112
:103F5000062C08D8DFE804F004085B92929F9F00CB
:103F60000022504B1A60F8BD32686ABB012D10D197
:103F70004E4B1B78062B0CD8DFE803F02304171BED
:103F80001F1F1F000022FF2311460120FDF7FEFF27
:103F900001224FF4FA712846FEF73CF82846FDF757
:103FA000D5FF07F0ABFE3060DDE700238022FF2164
:103FB000EBE7FF2300227A21E7E70023FF221946DF
:103FC000E3E7FF231A46FAE7104607F0DDFE47F263
:103FD0002F53984203D90524354B1C70B3E7334B5C
:103FE0001B7883B9012D0ED1324B1B78042B40D1A5
:103FF00003232F4C28462370FF231A461946FDF74A
:10400000C5FF24789FE77A7E92B30324E4E7306803
:1040100000BB012DA7D1254B1B78013B052BA2D856
:10402000DFE803F00303031010140022FF231146FE
:104030000120FDF7ABFF0122C8211046FDF7EAFF82
:104040000120ACE70023FF211A46F1E70023FF22FD
:104050001946EDE707F098FE47F22F53984201D931
:104060000624B9E77B7E0BB10424B5E70F4B1B7820
:104070006BB12846BDE8F840FDF768BFFF224FF45A
:10408000FA612846FDF7C6FF2846FDF75FFF0022CC
:10409000074B1A7067E70022054B1A70FEF79EFA6D
:1040A000E7E700BF38110020640C0020F83400203E
:1040B00034110020AC370020014B1978FFF73EBFC8
:1040C000341100200120704770B506460D460120CE
:1040D0000021FDF789FF10B90024204670BD294654
:1040E0003046FFF7EFFF04460028F5D00022044BCE
:1040F00029461D70034B30461A60FFF71FFFECE79F
:10410000341100203811002070B50E461546FEF718
:1041100077F8044650B126B1074B5B7E53B9062EA3
:1041200004D82DB102210120FFF7CEFF204670BD3B
:104130000121F8E71C46F9E7640C0020094B1B78C5
:104140007BB9094B1A7832B1084A527E4AB959787C
:104150001046FEF7C7B8064B1B78042B01D011465A
:10416000F6E7704734110020F8340020640C00207A
:10417000AC370020704700002DE9FF473F4E07464F
:104180008846FFF7F7FFFFF7D9FF3478002C32D0CD
:104190003B4D2B6813B907F0B1FD2860286807F084
:1041A000F3FD41F28733984205D9337801333370F8
:1041B00007F0A4FD28603378013B032B17D8DFE814
:1041C00003F0020C101400225020114605F0F6FBFB
:1041D0000024204604B0BDE8F0870022502110469C
:1041E000F4E7002150220846F0E75022F6E70024C9
:1041F00034702C60EDE7234B1B788BB94146384671
:10420000FFF772FB0028E3D04146384600F0B8FCC7
:1042100004460028DCD041463846FDF715FFD8E7B4
:1042200022462146204605F0C9FBDFF85CA0DFF8F6
:104230005C9001AE0A2551462A463046FCF7A0F9AB
:1042400099F81F30E2B2B3FBF5F59542A05D11D9A4
:10425000312B03D900235022194605E01D2B4FF0C6
:104260000003F8D81A465021013404F03DFD0A2C11
:10427000E0D1C3E700231A46EEE700BF2A11002071
:104280002C1100202511002020FB0008640C0020C8
:1042900070B505460E46FEF71DF8FEF787F910B11A
:1042A0000320FEF743F92B780A2B0ED10124084B8B
:1042B00031461C70074B28461B781BB908F052F892
:1042C000204670BD0BF07EFBFAE70020F9E700BF47
:1042D0003C110020F8340020012810B5044610D00D
:1042E000022809D1FEF762F9032805D00320FEF762
:1042F0001DF90020FEF760F92046BDE8104007F0E8
:10430000A1BC014B1870F7E78C0F0020014808F0A2
:1043100086BC00BFA08601000D4BF0B51B6883B1C1
:10432000490001EBC0000B4901220E461D5A31F82D
:10433000027BD4B2AF4205D104F0070236F8122056
:104340001A52F0BD0132092AF1D10022F8E700BF6C
:1043500040110020A4FE00082DE9FF4104460E464E
:1043600006F064F94FF000082C4D2D4F6880E0B244
:10437000864250D92B4B00210EE01CF801EBBEF118
:10438000FF0F01D086451CD00132042AF5D101313E
:10439000062903F104033CD09C460022EDE7012BE3
:1043A00008D1012A06D16B88ADF804808DF806305B
:1043B000019819E06B88ADF800108DF80230009874
:1043C00012E03B682BB303EBC10333F8121033F850
:1043D000123049BADAB21B0AE1D1002AEAD1ADF8AB
:1043E00008208DF80A20029803F06AFFC0F3072323
:1043F0008DF80C00C0F307408DF80D308DF80E00DD
:104400009DF80E309DF80D209DF80C10204604F00C
:104410006BFC0134ABE704B0BDE8F0814C0D00202B
:1044200040110020500D002041EA0203184310B44F
:1044300005D101463022094810BCFCF717B9002409
:1044400004230648013B13F0FF030170427020442F
:10445000F8D10834302CF3D110BC7047441100203F
:1044600010B5064A0B461478012C05D15878097806
:10447000FFF752FF204610BD0020FCE74C0D002046
:10448000024B1878431E5842584170474C0D00208B
:104490003023584302EB8102223000EB4200704788
:1044A00004207047032838B510D805290ED8032AF0
:1044B0000CD8FFF7EDFF054603F02CFB0446681C03
:1044C00003F028FB44EA002080B238BD0020FCE75E
:1044D000032870B51C460FD805290DD8032A0BD820
:1044E000FFF7D6FF0546E1B203F07CFB210A681C0A
:1044F000BDE8704003F076BB70BD2DE9F8430024A1
:1045000005460F461646A14600F12208BC4208EBBC
:10451000040001D1BDE8F8832B19BF2B04DC03F0A4
:10452000F9FA30550134F1E706F80490FAE72DE97D
:10453000F04105460E469046002400F12207B442A1
:1045400007EB040001D1BDE8F0812B19BF2B03DC80
:1045500018F8041003F046FB0134F0E7032806D8EE
:10456000302202FB00F10248223103F021BB7047E8
:1045700044110020032838B50CD8084A00231478C9
:10458000012C07D15578A84206D11370FFF7E6FF3A
:10459000204638BD0020FCE71846FAE74C0D002005
:1045A000032806D8302202FB00F10248223103F032
:1045B00047BB704744110020074B084A10B51A60EA
:1045C0000023074C2370607006F030F8608060783C
:1045D000BDE81040FFF7E4BF401100204411002067
:1045E0004C0D0020032808B50CD8074A5070FFF77F
:1045F000D7FF05F0C9FF2D2802D02D2005F0C1FFFF
:10460000012000E0002008BD4C0D0020032810B55B
:1046100010D8094B197869B9012458701C70FFF73C
:10462000BFFF05F0B1FF2D2802D02D2005F0A9FF16
:10463000204600E0002010BD4C0D0020032810B5DE
:10464000044609D8FFF7ACFF2046FFF793FF20464A
:10465000BDE81040FFF7C6BF10BD000008B5054813
:1046600002F070F8BDE80840C0222221024803F0A1
:104670009FBA00BFD0FD0008DEFF000808B50B4B55
:104680000A461B78012B0CD1A0F5A44020381F2826
:1046900009D9887820B150780978FFF73DFE0020CD
:1046A00008BD0120FCE71846FAE700BF4C0D0020CA
:1046B00038B50B780546FF2B0C4602D105F064FF98
:1046C0002070284638BD10B5E6242046002101346C
:1046D00003F04BFAF62CF8D110BD000010B505F030
:1046E00053FF0023054911F8014BDAB2844203D08D
:1046F0000133102BF7D11A46104610BDC2FE000838
:1047000010B50446FFF7EAFF2146BDE81040E63049
:1047100003F02BBA08B5FFF7E1FFE63003F0FAF932
:10472000072888BF002008BD70B505F02DFF0723BE
:10473000124A12F8011B81421DD0013B13F0FF0306
:10474000F7D10725FFF7E6FF0130B0FBF5F405FBD5
:1047500014040B4B13F8145003EB44035E7805F07C
:1047600065FF31460246284605F051FFE0B2BDE83C
:104770007040FFF7C5BF0625E4E700BFD2FE000882
:10478000B4FE00082DE9FF411A4B1B780BB3002241
:104790001146104605F012F90024DFF86080164F2C
:1047A00001AE0A2541462A463046FBF7E9FEFB7F6B
:1047B000E2B2B3FBF5F5954200D8AAB9312B305DD2
:1047C0000BD9002350221946013404F08DFA0A2C2B
:1047D000E7D1012004B0BDE8F0811D2B4FF00003AC
:1047E000F0D81A465021EFE70023305D1A461946EB
:1047F000EAE700BF74110020640C00202AFB0008C7
:104800000022014B1A707047FE34002070B501255C
:104810002A4B2B4E1D702B4B0446DB78F17F2B402F
:10482000294A10D000236329284915700B601A46C5
:104830008CBF1946FF21FDF7A9FBFF22FA21204674
:10484000FDF7E8FB22E00F292DD812781AB3642275
:104850001946FDF79BFB2A464FF47A712046FDF777
:10486000D9FBF37F93B9194D2B6813B907F046FABA
:104870002860286850B107F087FA4EF66023984206
:1048800004D9002301202B60FEF7BAFF2046BDE8C3
:104890007040FDF75BBB11461346FDF777FBFF2227
:1048A0004FF4FA71DAE7094915700B601A46194698
:1048B000FDF76CFBFF224FF49671C0E775110020E5
:1048C000640C0020F8340020800D002078110020B6
:1048D0000022114B10B51A70104BFF2804461A70B5
:1048E00019D10F4BD3F8883023F07F436E2B0BD1B7
:1048F0001146FDF74BFB20460121FDF75FFB2046EB
:10490000BDE81040FDF722BBB3F5DC0F03D1134621
:104910006E221946EDE710BDFE340020043500205C
:10492000840D002070B5224E04463578042D2CD815
:10493000DFE805F003381F30380007F053F81D4B4F
:10494000C0F34006187800F086FE022818BF1A4B04
:10495000314618BF1D78204618BFC5F300152A46FA
:104960000023FDF713FBFF2232212046FDF752FB07
:104970000BE0FF231A461946FDF708FB0322C82166
:104980002046FDF747FB012333702046BDE8704009
:10499000FDF7DCBAFF231A461946FDF7F7FA0122A4
:1049A000C821E2E700233370FFF7BCFFEDE700BF4B
:1049B0007D1100208E1100200635002008B5054B22
:1049C00000211870FB20FDF70FFBBDE80840FB201D
:1049D000FFF7A8BF7D11002008B5037C13B90E4B6B
:1049E000187808BD072B0DD1437C1BB10023FF2293
:1049F000FF2102E000231A461946012004F074F951
:104A00000020EEE7062B05D1437C002BF2D00023DB
:104A10001A46EDE70120E4E775110020034B1878F2
:104A200010F0030018BF0120704700BF14350020AC
:104A300008B501224FF400714FF0804009F0A7FA49
:104A40004FF080434FF4007201209A6108BD0120AD
:104A5000704701207047000010B5FDF7A7FD60B951
:104A6000264C206807F090F9B0F57A7F05D907F059
:104A700045F9206053200AF0C5FE214BDB78DA07A8
:104A80000CD5204B1B784BB90224002320461A4634
:104A90001946013404F028F9082CF6D11A4B1B787A
:104AA0009BB9184B1B7883B9184C23781BB9184B4A
:104AB0001B78042B09D106F095FFC30714D5962364
:104AC0001A461946012004F00FF9124B1B784BB11E
:104AD0000224002320461A461946013404F004F942
:104AE000082CF6D1012010BD0B4B5B7E0BB10023CF
:104AF000E6E72378002BFAD0E7E700BF801100201B
:104B00000035002004350020FE340020F834002059
:104B1000AC3700207C110020640C002008B5FDF7A4
:104B200047FB3023FF201A461946FDF72FFA0322D0
:104B3000FA21FF20FDF76EFAFF20FDF707FA0120AA
:104B4000014B187008BD00BF0435002038B505F0D2
:104B50001BFD0A4900230A4611F8015BDCB28542BD
:104B600004D001330A2BF7D1107803E0092CFBD0D5
:104B700013445878BDE8384005F003BD100E0020FE
:104B800038B5084B04461B780D4623B11022114658
:104B9000104604F013FF29462046FFF7F3FD0120DD
:104BA00038BD00BF8511002008B501224FF4007107
:104BB0004FF0804009F0EBF94FF080434FF0007266
:104BC0009A6108BD08B5FFF7EFFF012008BD00009E
:104BD000024BE220196803F021B800BF0035002025
:104BE00070B5B74E054633780C463BB18B782BB188
:104BF000002211461046327004F0E0FE47F6290309
:104C00009D4200F0CA816BD845F202239D4200F01C
:104C10003B822AD8AA2D00F0F18007D8A82D00F0F9
:104C20000F81A92D00F0FE800124F2E0E72D00F0B5
:104C30007C81B5F5A44F00F0FA81E32DF4D1A14BAE
:104C4000187800F008FD0228EED19F4B1B78DA0699
:104C5000EAD5FFF715FC0028E6D1E320A478002C64
:104C600000F0778100F0E0FBD3E047F621039D429E
:104C700000F0258223D845F223239D4200F0908244
:104C800047F213039D4200F03B8145F221239D42F0
:104C9000CAD1A378002BC7D1632000F001FCFFF735
:104CA000EFFB0028C0D0894B1A7832B10022214690
:104CB00045F221201A70FFF7D3FB01246DE247F67D
:104CC00027039D4200F0808100F2958147F623037F
:104CD0009D42A9D1A378002BA6D0FFF725FD97E030
:104CE00047F607639D4200F0378141D847F60163DC
:104CF0009D4200F0C68023D8B5F5F84F00F035810D
:104D0000B5F5FC4F00F0AF8047F62A039D428BD1EA
:104D1000A378002B88D005F017FD332884D8012311
:104D20006B4AFA2113706B4AFF2013700322FDF7C0
:104D300071F9FF20FDF70AF9332005F0FDFC67E06B
:104D400047F605639D4200F0CF8000F2A68047F64B
:104D500002639D427FF468AFFFF792FB002857D1B2
:104D6000A378002B3FF460AF5B4B1B78032B85E0EF
:104D700047F64C639D4200F0F88115D847F64A6328
:104D80009D4200F0BE8100F2DE8147F61E639D4227
:104D90007FF44AAFA478002C3AD1A82000F044FB5D
:104DA000A82000F057FB34E047F654639D4200F022
:104DB000E58047F655639D4200F0E78047F6536370
:104DC0009D427FF431AFA37813B305F0DDFB2D28AE
:104DD0001ED1FFF755FB0446404B587800F00F00FA
:104DE000002C40F0D481FFF711FC204622462146DA
:104DF000FFF71AFB0320FFF7E1FD0AE0384BA47828
:104E00001B7844B1002B3FF40FAFD920FDF7FCFD18
:104E10000024204670BD002B3FF406AFD920FDF7DB
:104E200055FEF6E72E4BA4781B7824B1002B3FF4F7
:104E3000FBAEDA20EAE7002B3FF4F6AEDA20EEE72D
:104E4000A278284B12B101221A70E1E71B7833B126
:104E5000234B1C781CB9A82000F022FBD9E728209E
:104E600000F01EFBD4E7FFF70BFB0028D0D1A3789E
:104E7000002B3FF4D9AE184B1B78012B7FF4D4AE36
:104E800018E0FFF7FDFA0028C2D1A378002B3FF409
:104E9000CBAE114B1B78022BF0E7FFF7F1FA00289D
:104EA000B6D1A378002B3FF4BFAE0B4B1B78002B81
:104EB0007FF4BAAEFFF73AF8041C18BF0124A8E744
:104EC000851100208E11002006350020841100205D
:104ED000FE34002004350020F83400200035002086
:104EE000FC340020FD340020FFF7CAFA00288FD1DF
:104EF000A378002B3FF498AEB54B1B78062BBDE78B
:104F0000A478002C3FF490AE00236E211A46FF20B7
:104F1000FDF73CF80121FF20FDF750F8FF20FDF7D9
:104F200015F80122AB4B1A7073E7AB4B187800F001
:104F300092FB02287FF478AEA84B1B78DB067FF546
:104F400073AEFFF79DFA00287FF46EAEA478E720D9
:104F500085E600F07FFA67E69D4B1B7803B1A378E6
:104F60009F4A03F00103137052E7A478002C3FF42A
:104F70005BAE01F019FF06F01FFF4AE7A378002B94
:104F80003FF446AF0123337042E7A378002B3FF490
:104F90003FAF62200AF036FC3AE7A478002C3FF4D9
:104FA00043AE05F0D1FBFF2805467FF43DAE01235B
:104FB0008C4AFA211370874A13700322FDF72AF8EE
:104FC0002846FCF7C3FF24E7A478002C3FF42CAE5E
:104FD00005F02CFB3F287FF627AE0322FA21FF20A5
:104FE000FDF718F8FF20FCF7B1FF01237D4A13708D
:104FF000784A13700DE7A478002C3FF415AE05F045
:1050000015FB10283FF610AE0322FA21FF20FDF712
:1050100001F8FF20FCF79AFF0123724A13706D4AD2
:10502000137000221146104604F0C8FCF1E6A37884
:10503000002B3FF4EDAE01226A4B002107201A70CD
:10504000654CFCF7D1FF0322FA210620FCF7E2FFB2
:105050000620FCF77BFF207800F0FDFA02287FF4A1
:10506000D7AE207800F0F7FA30B9022000F064FAE9
:10507000002000F04EFECBE6207800F0ECFA02288B
:105080007FF4C6AE0020F1E7A378002B3FF4C0AE5A
:105090000122544B002106201A704F4CFCF7A4FF4C
:1050A0000322FA210720FCF7B5FF0720FCF74EFF8B
:1050B000207800F0D0FA02283FF4AAAED1E7A37816
:1050C000002B3FF4A5AE05F05FFA1D28464B474A7A
:1050D00009D11C784CB901211970D3780B43D370D6
:1050E000FFF776FD95E6197809B100211970D1789E
:1050F0001B7863F30001D170FFF76AFDFFF726FD0F
:1051000086E6A378002B3FF483AE384C607800F03D
:105110000F00FFF745FA607800F00F00FFF72AFA5A
:105120000020A11CFFF7C4FA637860F303036370E7
:10513000FFF74EFD607800F00F00FFF753FA0020F4
:10514000FFF73CFC64E6A378002B3FF461AE274CEC
:10515000607800F00F00FFF723FA607800F00F008E
:10516000FFF708FAA11C0120DCE7A378002B3FF42D
:105170004FAE1E4C607800F00F00FFF711FA607818
:1051800000F00F00FFF7F6F9A11C0220CAE7FFF7B5
:10519000F1F90020FFF712FC0024154B1C7038E6D3
:1051A000A378002B7FF440AD632000F079F9FFF77E
:1051B00067F900283FF438AD0D4B1A78002A3FF408
:1051C0007CAD002221461A7045F2232073E500BF12
:1051D000F8340020043500208E1100200635002010
:1051E00074110020FE3400207C11002000350020C6
:1051F00084110020A82810B506D047F61E639842F7
:1052000028D00124204610BD09B90024FAE71D4A20
:105210000024137883F0010313701B4AD17863F3E1
:105220004201D170FFF7D4FC0123184AFF2013700C
:10523000174A1370174B1C7030231A461946FCF797
:10524000A5FE0322FA21FF20FCF7E4FEFF20FCF775
:105250007DFED7E70029D8D00F4B1A680F4B1340BB
:10526000B3F1807F0BD10E4B1B78042B07D1FEF7D7
:10527000FDFA04460028C8D1FEF7F2FAC2E7FEF7AD
:10528000F2FAC2E7FC34002000350020FE34002092
:1052900004350020FD340020F8340020FF00000118
:1052A000AC37002010B50020FFF788FB0C4A002423
:1052B000138823F4706323F0010343F00103138088
:1052C000FF239370074B1C70FFF7FDF9064B224636
:1052D00021461878FDF706F8BDE81040FFF778BCC6
:1052E0000035002084110020F834002010B5012280
:1052F0004FF400714FF0804008F049FE4FF08043BA
:105300004FF40072E2209A6102F022FC134C2060FC
:1053100008B9FFF7C7FFE378114AC3F3000113F0A0
:10532000060318BF0123607811700E4A00F00F00C9
:105330001370FFF741F9FF22C8210020FCF76AFE35
:105340000020FCF703FEFF22C821FB20FCF762FED1
:10535000FB20FCF7FBFD012010BD00BF0035002045
:105360007C110020FC3400200520704704280CD854
:1053700005290AD8032A08D8062303FB0010044B8A
:1053800002EB800233F8120070470120704700BF23
:10539000EEFE000805207047042808D839B9054BEF
:1053A00082F0010202EB400233F812007047012044
:1053B000704700BFDAFE0008A0F58073B3F5F85F10
:1053C00010B526D210F4805F00F4007400F48073EE
:1053D00000F4806100F400620DD0002B0CBF0020AF
:1053E00010200CB140F0200009B140F040000AB19B
:1053F00040F0800010BD181C18BF01200CB140F017
:10540000020009B140F00400002AF3D040F0080087
:10541000F0E70020EEE710B50C46FFF7CDFF23467E
:10542000BDE8104018470000A0F1E003072B10B5BD
:10543000044600D940B920460449FFF7ECFFE0B22A
:10544000BDE81040FDF7E0BA0149F6E7692B000816
:10545000192C000810B50446C0B2FDF737FBA4F1C3
:10546000E003072B00D92CB903492046BDE81040C2
:10547000FFF7D1BF0149F8E7C12B0008712C0008E4
:1054800038B505460C46FFF7CFFF1CB92846FFF795
:10549000E1FF38BD6420013C07F0C1FBA4B2F4E792
:1054A00008B539280CBF50210A21FFF7E9FF08BDD4
:1054B00001207047704708B5FFF7FCFF08BD0000EA
:1054C00013B502AB03E903000F4B1B78B3B99DF88A
:1054D0000230009873B16AB100F0CAFC044601467C
:1054E000009800F089FC2046009902B0BDE8104009
:1054F00001F048BB00F09EFC0446F4E7009800F081
:10550000B7FC0099F1E700BF8D110020034610B4ED
:1055100000885C880A4640EA0440998810BCFFF77E
:10552000CFBF0120704710B504460021FFF7EEFF02
:105530002146FFF7C0FF10BD10B501248440E4B23E
:10554000204601F0E2F82046BDE8104000F0B5BB6F
:10555000704708B500F04CFBFFF7FAFFBDE80840C4
:1055600046F2A81007F05BBB08B5FFF7F2FFBDE8F5
:10557000084006F021BC08B5FFF7EBFFBDE8084086
:1055800006F042BC38B501210546FFF7BFFF2946AA
:10559000044605F06BFA08B9002038BD29462046BC
:1055A000FEF716FB0028F7D02946204606F05CF8E7
:1055B0000028F1D02946204605F0EEFB0028EBD06C
:1055C0002946204605F0CEFF0028E5D02946204692
:1055D00005F002F90028DFD02946204606F092F8AF
:1055E0000028D9D0AB785BB147F603439C421DD06D
:1055F0000AD8B4F5F84F16D047F601439C4217D0AD
:105600002846FFF755FFC8E747F65B439C4215D095
:1056100047F65C439C420ED047F65A439C42EFD17A
:1056200001F04EF8ECE7FFF79FFFB5E701F04FF808
:10563000FFF7A1FFB0E701F037F8E1E701F043F829
:10564000DEE708B500F02EF8002004F015FFBDE8F5
:105650000840FEF7ADBA03091CBF184604238208B0
:105660001EBF10460233DBB242081CBF0133DBB25F
:1056700018467047704701207047704738B5054697
:10568000FFF7F9FF044610B12846FFF7F6FF204662
:1056900038BD704710B50446FFF7ECFF2046FFF712
:1056A000EDFF10BD08B506F095F9FFF7F3FF08BD53
:1056B00010B506F08FF9074B04461A78824207D0DE
:1056C000187006F01BFB044B18602046FFF7E2FF42
:1056D00010BD00BF8C1100208811002010B586B0CD
:1056E0006C4684E803009DF802300BB100F01EFF09
:1056F0000023ADF8163094E80300ADF8141089B219
:105700000490ADF80C0004AC29B994E8030000F053
:1057100045FE06B010BD4FF6FF73BDF80C209A424F
:10572000F3D02046FFF7FDFE0028EED1F1E7008818
:1057300000F0C0BB08B529B102F016F8BDE808407A
:1057400002F0E6B802F06EF8F8E738B505460C4608
:10575000FDF75AF91CB92846FDF7B8F938BD6420A1
:10576000013C07F05CFAA4B2F4E708B539280CBF95
:1057700050210A21FFF7E9FF08BD00002DE9F0479D
:10578000877981460C46857800F09AFE3F0980466D
:1057900000B3A846F5B1C4F3072303F0F002402A92
:1057A00009D004F12002D2B2072A25D91FB903F08B
:1057B000E003202B23D0AC4B93F8018018F00408B1
:1057C00008D0022000F03CFF00F07AFE80F00100DB
:1057D0005FFA80F8C4F303330B2B41D8DFE813F0F2
:1057E0001100110062006200CE00E40040004000A1
:1057F000E9004601560156014FF00008EAE7B846B5
:10580000E8E7C4F30723C4F3032613F0F00F18BF2F
:105810003601E7B295B156B107F12003DBB2072B91
:10582000304600D93FB900F05BFE00F0AFFE3846CD
:10583000FDF7EAF814E000F069FEF6E73846FDF7F8
:1058400045F96EB107F12003DBB2072B304600D9D2
:1058500017B900F04DFE01E000F060FE00F096FE8A
:10586000C4F30334083C032C03D806F0B3F8FFF765
:1058700011FFB8F1000F00F0618100F019FE10F087
:10588000010040F05B8189F8020000F009FE00F0A1
:1058900047FA484600F068F900F002FEBDE8F0471C
:1058A00000F04ABAC4F3072303F0F003C4F303265D
:1058B000202B5FFA84FA18BF3601BAF1000F0FD01F
:1058C000BAF1010F41D0002D49D0002F40D099F8F6
:1058D0000630DA0741D56FF3071389F8063037E051
:1058E000614B5B7859070FD43DB126B1304600F0CB
:1058F000F7FD00F04BFE00209AE72846FDF7E6F89A
:10590000002EADD03046A4E785B137B900F014FEC3
:105910003043C0B2FDF728F9A2E7012FF6D100F01D
:105920000BFE3043C0B200F013FE99E72FB900F030
:1059300021FE3046FDF744F992E7012F90D0304622
:10594000FDF73EF900F016FE8AE71DB1052F87D856
:105950003046DFE7042F83D8EBE7504668E7002F97
:10596000E7D0BAF1390F0CBF4FF4FA504FF47A7008
:1059700007F055F95046FDF7A9F871E7C4F3812304
:1059800043B1012B7FF46CAF65B1C4F3090006F09D
:105990006BF865E725B1C4F3090006F049F85FE745
:1059A0002846FAE72846F2E72946E0B2FFF7C2FEAA
:1059B00056E714F4407F27D1002D7FF451AFC4F394
:1059C0004210820014F010001EBF0F209040C04310
:1059D00004F00F0303FA02F3C4F3812218BFC0B22C
:1059E000DBB2022A40EA030008D00AD8012A02D01A
:1059F00000F06EF934E700F063F931E700F070F978
:105A00002EE700F05AF92BE7C4F30122D3B205B315
:105A100002F00103002B3FF423AFC4F342108200D5
:105A200014F010001EBF0F209040C04304F00F037D
:105A300003FA02F3C4F3812218BFC0B2DBB2022A18
:105A400040EA03000AD00CD8012A04D000F094F9EF
:105A500006E75B08DEE700F087F901E700F094F95C
:105A6000FEE600F04BF9FBE606350020E7B2C4F392
:105A7000032625B1304600F053F938464AE7384648
:105A8000FDF79EF8304600F057F9E9E6E6B2A6F1D8
:105A9000F003042B3DD8DFE803F003220E151E00AF
:105AA0003DB1042F3FF6DCAEC4F3042000F050F902
:105AB000D6E6052FF6E7C4F30420002DE3D100F06D
:105AC0002FF9CDE625B1C4F3042000F022F9C7E692
:105AD00000F01CF9C4E61A4B5B785B0704D4C4F3EE
